{
  "contractName": "AlquilerAutos",
  "abi": [
    {
      "inputs": [],
      "stateMutability": "nonpayable",
      "type": "constructor"
    },
    {
      "anonymous": false,
      "inputs": [
        {
          "indexed": true,
          "internalType": "address",
          "name": "arrendatario",
          "type": "address"
        },
        {
          "indexed": false,
          "internalType": "string",
          "name": "car",
          "type": "string"
        },
        {
          "indexed": false,
          "internalType": "uint256",
          "name": "startDate",
          "type": "uint256"
        },
        {
          "indexed": false,
          "internalType": "uint256",
          "name": "endDate",
          "type": "uint256"
        },
        {
          "indexed": false,
          "internalType": "uint256",
          "name": "totalPrice",
          "type": "uint256"
        }
      ],
      "name": "Alquilado",
      "type": "event"
    },
    {
      "anonymous": false,
      "inputs": [
        {
          "indexed": true,
          "internalType": "address",
          "name": "arrendatario",
          "type": "address"
        },
        {
          "indexed": false,
          "internalType": "string",
          "name": "car",
          "type": "string"
        }
      ],
      "name": "Devuelto",
      "type": "event"
    },
    {
      "inputs": [
        {
          "internalType": "address",
          "name": "",
          "type": "address"
        }
      ],
      "name": "autosAlquilados",
      "outputs": [
        {
          "internalType": "address",
          "name": "user",
          "type": "address"
        },
        {
          "internalType": "string",
          "name": "car",
          "type": "string"
        },
        {
          "internalType": "uint256",
          "name": "startDate",
          "type": "uint256"
        },
        {
          "internalType": "uint256",
          "name": "endDate",
          "type": "uint256"
        },
        {
          "internalType": "uint256",
          "name": "totalPrice",
          "type": "uint256"
        }
      ],
      "stateMutability": "view",
      "type": "function"
    },
    {
      "inputs": [],
      "name": "owner",
      "outputs": [
        {
          "internalType": "address",
          "name": "",
          "type": "address"
        }
      ],
      "stateMutability": "view",
      "type": "function"
    },
    {
      "inputs": [],
      "name": "precioAlquiler",
      "outputs": [
        {
          "internalType": "uint256",
          "name": "",
          "type": "uint256"
        }
      ],
      "stateMutability": "view",
      "type": "function"
    },
    {
      "inputs": [
        {
          "internalType": "string",
          "name": "car",
          "type": "string"
        },
        {
          "internalType": "uint256",
          "name": "startDate",
          "type": "uint256"
        },
        {
          "internalType": "uint256",
          "name": "endDate",
          "type": "uint256"
        },
        {
          "internalType": "uint256",
          "name": "totalPrice",
          "type": "uint256"
        }
      ],
      "name": "alquilarAuto",
      "outputs": [],
      "stateMutability": "payable",
      "type": "function"
    },
    {
      "inputs": [],
      "name": "devolverAuto",
      "outputs": [],
      "stateMutability": "nonpayable",
      "type": "function"
    },
    {
      "inputs": [],
      "name": "retirarFondos",
      "outputs": [],
      "stateMutability": "nonpayable",
      "type": "function"
    }
  ],
  "bytecode": "0x608060405234801561001057600080fd5b50336000806101000a81548173ffffffffffffffffffffffffffffffffffffffff021916908373ffffffffffffffffffffffffffffffffffffffff16021790555067016345785d8a00006001819055506111328061006f6000396000f3fe6080604052600436106100555760003560e01c806345e0fb9e1461005a5780638af01880146100765780638da5cb5b1461008d578063da5866e8146100b8578063e53ec639146100e3578063eeac0ff9146100fa575b600080fd5b610074600480360381019061006f9190610979565b61013b565b005b34801561008257600080fd5b5061008b610357565b005b34801561009957600080fd5b506100a261044e565b6040516100af9190610a3d565b60405180910390f35b3480156100c457600080fd5b506100cd610472565b6040516100da9190610a67565b60405180910390f35b3480156100ef57600080fd5b506100f8610478565b005b34801561010657600080fd5b50610121600480360381019061011c9190610aae565b6106ae565b604051610132959493929190610b5a565b60405180910390f35b8034101561017e576040517f08c379a000000000000000000000000000000000000000000000000000000000815260040161017590610c26565b60405180910390fd5b6000600260003373ffffffffffffffffffffffffffffffffffffffff1673ffffffffffffffffffffffffffffffffffffffff1681526020019081526020016000206002015414610203576040517f08c379a00000000000000000000000000000000000000000000000000000000081526004016101fa90610c92565b60405180910390fd5b6040518060a001604052803373ffffffffffffffffffffffffffffffffffffffff16815260200185815260200184815260200183815260200182815250600260003373ffffffffffffffffffffffffffffffffffffffff1673ffffffffffffffffffffffffffffffffffffffff16815260200190815260200160002060008201518160000160006101000a81548173ffffffffffffffffffffffffffffffffffffffff021916908373ffffffffffffffffffffffffffffffffffffffff16021790555060208201518160010190816102db9190610ebe565b506040820151816002015560608201518160030155608082015181600401559050503373ffffffffffffffffffffffffffffffffffffffff167f412a196861095d05f23f9c17bb016fbf13e75bdddc6910ee81284077b909b15a858585856040516103499493929190610f90565b60405180910390a250505050565b60008054906101000a900473ffffffffffffffffffffffffffffffffffffffff1673ffffffffffffffffffffffffffffffffffffffff163373ffffffffffffffffffffffffffffffffffffffff16146103e5576040517f08c379a00000000000000000000000000000000000000000000000000000000081526004016103dc9061104e565b60405180910390fd5b60008054906101000a900473ffffffffffffffffffffffffffffffffffffffff1673ffffffffffffffffffffffffffffffffffffffff166108fc479081150290604051600060405180830381858888f1935050505015801561044b573d6000803e3d6000fd5b50565b60008054906101000a900473ffffffffffffffffffffffffffffffffffffffff1681565b60015481565b6000600260003373ffffffffffffffffffffffffffffffffffffffff1673ffffffffffffffffffffffffffffffffffffffff16815260200190815260200160002060020154036104fd576040517f08c379a00000000000000000000000000000000000000000000000000000000081526004016104f4906110ba565b60405180910390fd5b6000600260003373ffffffffffffffffffffffffffffffffffffffff1673ffffffffffffffffffffffffffffffffffffffff168152602001908152602001600020600101805461054c90610ce1565b80601f016020809104026020016040519081016040528092919081815260200182805461057890610ce1565b80156105c55780601f1061059a576101008083540402835291602001916105c5565b820191906000526020600020905b8154815290600101906020018083116105a857829003601f168201915b50505050509050600260003373ffffffffffffffffffffffffffffffffffffffff1673ffffffffffffffffffffffffffffffffffffffff168152602001908152602001600020600080820160006101000a81549073ffffffffffffffffffffffffffffffffffffffff0219169055600182016000610643919061078c565b60028201600090556003820160009055600482016000905550503373ffffffffffffffffffffffffffffffffffffffff167f29d3379e8a6669839fd3b9f476037be4245cd05034b4682a7a0314e8836e460e826040516106a391906110da565b60405180910390a250565b60026020528060005260406000206000915090508060000160009054906101000a900473ffffffffffffffffffffffffffffffffffffffff16908060010180546106f790610ce1565b80601f016020809104026020016040519081016040528092919081815260200182805461072390610ce1565b80156107705780601f1061074557610100808354040283529160200191610770565b820191906000526020600020905b81548152906001019060200180831161075357829003601f168201915b5050505050908060020154908060030154908060040154905085565b50805461079890610ce1565b6000825580601f106107aa57506107c9565b601f0160209004906000526020600020908101906107c891906107cc565b5b50565b5b808211156107e55760008160009055506001016107cd565b5090565b6000604051905090565b600080fd5b600080fd5b600080fd5b600080fd5b6000601f19601f8301169050919050565b7f4e487b7100000000000000000000000000000000000000000000000000000000600052604160045260246000fd5b61085082610807565b810181811067ffffffffffffffff8211171561086f5761086e610818565b5b80604052505050565b60006108826107e9565b905061088e8282610847565b919050565b600067ffffffffffffffff8211156108ae576108ad610818565b5b6108b782610807565b9050602081019050919050565b82818337600083830152505050565b60006108e66108e184610893565b610878565b90508281526020810184848401111561090257610901610802565b5b61090d8482856108c4565b509392505050565b600082601f83011261092a576109296107fd565b5b813561093a8482602086016108d3565b91505092915050565b6000819050919050565b61095681610943565b811461096157600080fd5b50565b6000813590506109738161094d565b92915050565b60008060008060808587031215610993576109926107f3565b5b600085013567ffffffffffffffff8111156109b1576109b06107f8565b5b6109bd87828801610915565b94505060206109ce87828801610964565b93505060406109df87828801610964565b92505060606109f087828801610964565b91505092959194509250565b600073ffffffffffffffffffffffffffffffffffffffff82169050919050565b6000610a27826109fc565b9050919050565b610a3781610a1c565b82525050565b6000602082019050610a526000830184610a2e565b92915050565b610a6181610943565b82525050565b6000602082019050610a7c6000830184610a58565b92915050565b610a8b81610a1c565b8114610a9657600080fd5b50565b600081359050610aa881610a82565b92915050565b600060208284031215610ac457610ac36107f3565b5b6000610ad284828501610a99565b91505092915050565b600081519050919050565b600082825260208201905092915050565b60005b83811015610b15578082015181840152602081019050610afa565b60008484015250505050565b6000610b2c82610adb565b610b368185610ae6565b9350610b46818560208601610af7565b610b4f81610807565b840191505092915050565b600060a082019050610b6f6000830188610a2e565b8181036020830152610b818187610b21565b9050610b906040830186610a58565b610b9d6060830185610a58565b610baa6080830184610a58565b9695505050505050565b7f53616c646f20696e737566696369656e7465207061726120616c7175696c617260008201527f20756e206175746f000000000000000000000000000000000000000000000000602082015250565b6000610c10602883610ae6565b9150610c1b82610bb4565b604082019050919050565b60006020820190508181036000830152610c3f81610c03565b9050919050565b7f5961207469656e657320756e206175746f20616c7175696c61646f0000000000600082015250565b6000610c7c601b83610ae6565b9150610c8782610c46565b602082019050919050565b60006020820190508181036000830152610cab81610c6f565b9050919050565b7f4e487b7100000000000000000000000000000000000000000000000000000000600052602260045260246000fd5b60006002820490506001821680610cf957607f821691505b602082108103610d0c57610d0b610cb2565b5b50919050565b60008190508160005260206000209050919050565b60006020601f8301049050919050565b600082821b905092915050565b600060088302610d747fffffffffffffffffffffffffffffffffffffffffffffffffffffffffffffffff82610d37565b610d7e8683610d37565b95508019841693508086168417925050509392505050565b6000819050919050565b6000610dbb610db6610db184610943565b610d96565b610943565b9050919050565b6000819050919050565b610dd583610da0565b610de9610de182610dc2565b848454610d44565b825550505050565b600090565b610dfe610df1565b610e09818484610dcc565b505050565b5b81811015610e2d57610e22600082610df6565b600181019050610e0f565b5050565b601f821115610e7257610e4381610d12565b610e4c84610d27565b81016020851015610e5b578190505b610e6f610e6785610d27565b830182610e0e565b50505b505050565b600082821c905092915050565b6000610e9560001984600802610e77565b1980831691505092915050565b6000610eae8383610e84565b9150826002028217905092915050565b610ec782610adb565b67ffffffffffffffff811115610ee057610edf610818565b5b610eea8254610ce1565b610ef5828285610e31565b600060209050601f831160018114610f285760008415610f16578287015190505b610f208582610ea2565b865550610f88565b601f198416610f3686610d12565b60005b82811015610f5e57848901518255600182019150602085019450602081019050610f39565b86831015610f7b5784890151610f77601f891682610e84565b8355505b6001600288020188555050505b505050505050565b60006080820190508181036000830152610faa8187610b21565b9050610fb96020830186610a58565b610fc66040830185610a58565b610fd36060830184610a58565b95945050505050565b7f536f6c6f20656c2070726f706965746172696f2070756564652072657469726160008201527f7220666f6e646f73000000000000000000000000000000000000000000000000602082015250565b6000611038602883610ae6565b915061104382610fdc565b604082019050919050565b600060208201905081810360008301526110678161102b565b9050919050565b7f4e6f207469656e657320756e206175746f20616c7175696c61646f0000000000600082015250565b60006110a4601b83610ae6565b91506110af8261106e565b602082019050919050565b600060208201905081810360008301526110d381611097565b9050919050565b600060208201905081810360008301526110f48184610b21565b90509291505056fea26469706673582212206488004d3558e05b6c4132efaa15762f526b26a674adef9e3b103f22cc8b70a764736f6c63430008130033",
  "immutableReferences": {},
  "source": "// SPDX-License-Identifier: MIT\r\npragma solidity 0.8.19;\r\n\r\ncontract AlquilerAutos {\r\n    address public owner;\r\n    uint256 public precioAlquiler;\r\n    struct Alquiler {\r\n        address user;\r\n        string car;\r\n        uint256 startDate;\r\n        uint256 endDate;\r\n        uint256 totalPrice;\r\n    }\r\n    mapping(address => Alquiler) public autosAlquilados;\r\n\r\n    event Alquilado(\r\n        address indexed arrendatario,\r\n        string car,\r\n        uint256 startDate,\r\n        uint256 endDate,\r\n        uint256 totalPrice\r\n    );\r\n    event Devuelto(address indexed arrendatario, string car);\r\n\r\n    constructor() {\r\n        owner = msg.sender;\r\n        precioAlquiler = 100000000000000000; // Precio de alquiler en wei\r\n    }\r\n\r\n    function alquilarAuto(\r\n        string memory car,\r\n        uint256 startDate,\r\n        uint256 endDate,\r\n        uint256 totalPrice\r\n    ) public payable {\r\n        require(\r\n            msg.value >= totalPrice,\r\n            \"Saldo insuficiente para alquilar un auto\"\r\n        );\r\n        require(\r\n            autosAlquilados[msg.sender].startDate == 0,\r\n            \"Ya tienes un auto alquilado\"\r\n        );\r\n\r\n        autosAlquilados[msg.sender] = Alquiler({\r\n            user: msg.sender,\r\n            car: car,\r\n            startDate: startDate,\r\n            endDate: endDate,\r\n            totalPrice: totalPrice\r\n        });\r\n\r\n        emit Alquilado(msg.sender, car, startDate, endDate, totalPrice);\r\n    }\r\n\r\n    function devolverAuto() public {\r\n        require(\r\n            autosAlquilados[msg.sender].startDate != 0,\r\n            \"No tienes un auto alquilado\"\r\n        );\r\n\r\n        string memory car = autosAlquilados[msg.sender].car;\r\n        delete autosAlquilados[msg.sender];\r\n\r\n        emit Devuelto(msg.sender, car);\r\n    }\r\n\r\n    function retirarFondos() public {\r\n        require(\r\n            msg.sender == owner,\r\n            \"Solo el propietario puede retirar fondos\"\r\n        );\r\n        payable(owner).transfer(address(this).balance);\r\n    }\r\n}\r\n",
  "sourcePath": "C:\\Users\\Janus\\Documents\\Proyectos\\alquiler-autos\\contracts\\CarRental.sol",
  "compiler": {
    "name": "solc",
    "version": "0.8.19+commit.7dd6d404.Emscripten.clang"
  },
  "schemaVersion": "3.4.16",
  "updatedAt": "2025-04-04T17:16:31.160Z",
  "devdoc": {
    "kind": "dev",
    "methods": {},
    "version": 1
  },
  "userdoc": {
    "kind": "user",
    "methods": {},
    "version": 1
  }
}